{
  "_format": "hh-sol-artifact-1",
  "contractName": "NativeAliens",
  "sourceName": "contracts/Contract.sol",
  "abi": [
    {
      "inputs": [],
      "stateMutability": "nonpayable",
      "type": "constructor"
    },
    {
      "anonymous": false,
      "inputs": [
        {
          "indexed": true,
          "internalType": "address",
          "name": "owner",
          "type": "address"
        },
        {
          "indexed": true,
          "internalType": "address",
          "name": "approved",
          "type": "address"
        },
        {
          "indexed": true,
          "internalType": "uint256",
          "name": "tokenId",
          "type": "uint256"
        }
      ],
      "name": "Approval",
      "type": "event"
    },
    {
      "anonymous": false,
      "inputs": [
        {
          "indexed": true,
          "internalType": "address",
          "name": "owner",
          "type": "address"
        },
        {
          "indexed": true,
          "internalType": "address",
          "name": "operator",
          "type": "address"
        },
        {
          "indexed": false,
          "internalType": "bool",
          "name": "approved",
          "type": "bool"
        }
      ],
      "name": "ApprovalForAll",
      "type": "event"
    },
    {
      "anonymous": false,
      "inputs": [
        {
          "indexed": true,
          "internalType": "address",
          "name": "previousOwner",
          "type": "address"
        },
        {
          "indexed": true,
          "internalType": "address",
          "name": "newOwner",
          "type": "address"
        }
      ],
      "name": "OwnershipTransferred",
      "type": "event"
    },
    {
      "anonymous": false,
      "inputs": [
        {
          "indexed": true,
          "internalType": "address",
          "name": "from",
          "type": "address"
        },
        {
          "indexed": true,
          "internalType": "address",
          "name": "to",
          "type": "address"
        },
        {
          "indexed": true,
          "internalType": "uint256",
          "name": "tokenId",
          "type": "uint256"
        }
      ],
      "name": "Transfer",
      "type": "event"
    },
    {
      "inputs": [
        {
          "internalType": "address",
          "name": "",
          "type": "address"
        }
      ],
      "name": "addressMintedBalance",
      "outputs": [
        {
          "internalType": "uint256",
          "name": "",
          "type": "uint256"
        }
      ],
      "stateMutability": "view",
      "type": "function"
    },
    {
      "inputs": [
        {
          "internalType": "uint256[]",
          "name": "quantity",
          "type": "uint256[]"
        },
        {
          "internalType": "address[]",
          "name": "recipient",
          "type": "address[]"
        }
      ],
      "name": "airDrop",
      "outputs": [],
      "stateMutability": "nonpayable",
      "type": "function"
    },
    {
      "inputs": [
        {
          "internalType": "address",
          "name": "to",
          "type": "address"
        },
        {
          "internalType": "uint256",
          "name": "tokenId",
          "type": "uint256"
        }
      ],
      "name": "approve",
      "outputs": [],
      "stateMutability": "nonpayable",
      "type": "function"
    },
    {
      "inputs": [
        {
          "internalType": "address",
          "name": "owner",
          "type": "address"
        }
      ],
      "name": "balanceOf",
      "outputs": [
        {
          "internalType": "uint256",
          "name": "",
          "type": "uint256"
        }
      ],
      "stateMutability": "view",
      "type": "function"
    },
    {
      "inputs": [],
      "name": "baseExtension",
      "outputs": [
        {
          "internalType": "string",
          "name": "",
          "type": "string"
        }
      ],
      "stateMutability": "view",
      "type": "function"
    },
    {
      "inputs": [],
      "name": "baseURI",
      "outputs": [
        {
          "internalType": "string",
          "name": "",
          "type": "string"
        }
      ],
      "stateMutability": "view",
      "type": "function"
    },
    {
      "inputs": [
        {
          "internalType": "bool",
          "name": "_state",
          "type": "bool"
        }
      ],
      "name": "changeStatePaused",
      "outputs": [],
      "stateMutability": "nonpayable",
      "type": "function"
    },
    {
      "inputs": [
        {
          "internalType": "bool",
          "name": "_state",
          "type": "bool"
        }
      ],
      "name": "changeStateRevealed",
      "outputs": [],
      "stateMutability": "nonpayable",
      "type": "function"
    },
    {
      "inputs": [],
      "name": "cost",
      "outputs": [
        {
          "internalType": "uint256",
          "name": "",
          "type": "uint256"
        }
      ],
      "stateMutability": "view",
      "type": "function"
    },
    {
      "inputs": [],
      "name": "costPre",
      "outputs": [
        {
          "internalType": "uint256",
          "name": "",
          "type": "uint256"
        }
      ],
      "stateMutability": "view",
      "type": "function"
    },
    {
      "inputs": [
        {
          "internalType": "uint256",
          "name": "tokenId",
          "type": "uint256"
        }
      ],
      "name": "getApproved",
      "outputs": [
        {
          "internalType": "address",
          "name": "",
          "type": "address"
        }
      ],
      "stateMutability": "view",
      "type": "function"
    },
    {
      "inputs": [
        {
          "internalType": "address",
          "name": "owner",
          "type": "address"
        },
        {
          "internalType": "address",
          "name": "operator",
          "type": "address"
        }
      ],
      "name": "isApprovedForAll",
      "outputs": [
        {
          "internalType": "bool",
          "name": "",
          "type": "bool"
        }
      ],
      "stateMutability": "view",
      "type": "function"
    },
    {
      "inputs": [
        {
          "internalType": "address",
          "name": "_user",
          "type": "address"
        }
      ],
      "name": "isWhitelisted",
      "outputs": [
        {
          "internalType": "bool",
          "name": "",
          "type": "bool"
        }
      ],
      "stateMutability": "view",
      "type": "function"
    },
    {
      "inputs": [],
      "name": "maxMintAmount",
      "outputs": [
        {
          "internalType": "uint256",
          "name": "",
          "type": "uint256"
        }
      ],
      "stateMutability": "view",
      "type": "function"
    },
    {
      "inputs": [],
      "name": "maxSupply",
      "outputs": [
        {
          "internalType": "uint256",
          "name": "",
          "type": "uint256"
        }
      ],
      "stateMutability": "view",
      "type": "function"
    },
    {
      "inputs": [
        {
          "internalType": "uint256",
          "name": "_mintAmount",
          "type": "uint256"
        }
      ],
      "name": "mint",
      "outputs": [],
      "stateMutability": "payable",
      "type": "function"
    },
    {
      "inputs": [],
      "name": "name",
      "outputs": [
        {
          "internalType": "string",
          "name": "",
          "type": "string"
        }
      ],
      "stateMutability": "view",
      "type": "function"
    },
    {
      "inputs": [],
      "name": "nftPerAddressLimit",
      "outputs": [
        {
          "internalType": "uint256",
          "name": "",
          "type": "uint256"
        }
      ],
      "stateMutability": "view",
      "type": "function"
    },
    {
      "inputs": [],
      "name": "notRevealedUri",
      "outputs": [
        {
          "internalType": "string",
          "name": "",
          "type": "string"
        }
      ],
      "stateMutability": "view",
      "type": "function"
    },
    {
      "inputs": [],
      "name": "onlyWhitelisted",
      "outputs": [
        {
          "internalType": "bool",
          "name": "",
          "type": "bool"
        }
      ],
      "stateMutability": "view",
      "type": "function"
    },
    {
      "inputs": [],
      "name": "owner",
      "outputs": [
        {
          "internalType": "address",
          "name": "",
          "type": "address"
        }
      ],
      "stateMutability": "view",
      "type": "function"
    },
    {
      "inputs": [
        {
          "internalType": "uint256",
          "name": "tokenId",
          "type": "uint256"
        }
      ],
      "name": "ownerOf",
      "outputs": [
        {
          "internalType": "address",
          "name": "",
          "type": "address"
        }
      ],
      "stateMutability": "view",
      "type": "function"
    },
    {
      "inputs": [],
      "name": "paused",
      "outputs": [
        {
          "internalType": "bool",
          "name": "",
          "type": "bool"
        }
      ],
      "stateMutability": "view",
      "type": "function"
    },
    {
      "inputs": [],
      "name": "renounceOwnership",
      "outputs": [],
      "stateMutability": "nonpayable",
      "type": "function"
    },
    {
      "inputs": [],
      "name": "revealed",
      "outputs": [
        {
          "internalType": "bool",
          "name": "",
          "type": "bool"
        }
      ],
      "stateMutability": "view",
      "type": "function"
    },
    {
      "inputs": [
        {
          "internalType": "address",
          "name": "from",
          "type": "address"
        },
        {
          "internalType": "address",
          "name": "to",
          "type": "address"
        },
        {
          "internalType": "uint256",
          "name": "tokenId",
          "type": "uint256"
        }
      ],
      "name": "safeTransferFrom",
      "outputs": [],
      "stateMutability": "nonpayable",
      "type": "function"
    },
    {
      "inputs": [
        {
          "internalType": "address",
          "name": "from",
          "type": "address"
        },
        {
          "internalType": "address",
          "name": "to",
          "type": "address"
        },
        {
          "internalType": "uint256",
          "name": "tokenId",
          "type": "uint256"
        },
        {
          "internalType": "bytes",
          "name": "_data",
          "type": "bytes"
        }
      ],
      "name": "safeTransferFrom",
      "outputs": [],
      "stateMutability": "nonpayable",
      "type": "function"
    },
    {
      "inputs": [
        {
          "internalType": "address",
          "name": "operator",
          "type": "address"
        },
        {
          "internalType": "bool",
          "name": "approved",
          "type": "bool"
        }
      ],
      "name": "setApprovalForAll",
      "outputs": [],
      "stateMutability": "nonpayable",
      "type": "function"
    },
    {
      "inputs": [
        {
          "internalType": "string",
          "name": "_newBaseExtension",
          "type": "string"
        }
      ],
      "name": "setBaseExtension",
      "outputs": [],
      "stateMutability": "nonpayable",
      "type": "function"
    },
    {
      "inputs": [
        {
          "internalType": "string",
          "name": "_newBaseURI",
          "type": "string"
        }
      ],
      "name": "setBaseURI",
      "outputs": [],
      "stateMutability": "nonpayable",
      "type": "function"
    },
    {
      "inputs": [
        {
          "internalType": "uint256",
          "name": "_newCost",
          "type": "uint256"
        }
      ],
      "name": "setCost",
      "outputs": [],
      "stateMutability": "nonpayable",
      "type": "function"
    },
    {
      "inputs": [
        {
          "internalType": "uint256",
          "name": "_newCost",
          "type": "uint256"
        }
      ],
      "name": "setCostPre",
      "outputs": [],
      "stateMutability": "nonpayable",
      "type": "function"
    },
    {
      "inputs": [
        {
          "internalType": "uint256",
          "name": "_newmaxMintAmount",
          "type": "uint256"
        }
      ],
      "name": "setMaxMintAmount",
      "outputs": [],
      "stateMutability": "nonpayable",
      "type": "function"
    },
    {
      "inputs": [
        {
          "internalType": "uint256",
          "name": "_newMaxSupply",
          "type": "uint256"
        }
      ],
      "name": "setMaxSupply",
      "outputs": [],
      "stateMutability": "nonpayable",
      "type": "function"
    },
    {
      "inputs": [
        {
          "internalType": "uint256",
          "name": "_limit",
          "type": "uint256"
        }
      ],
      "name": "setNftPerAddressLimit",
      "outputs": [],
      "stateMutability": "nonpayable",
      "type": "function"
    },
    {
      "inputs": [
        {
          "internalType": "string",
          "name": "_notRevealedURI",
          "type": "string"
        }
      ],
      "name": "setNotRevealedURI",
      "outputs": [],
      "stateMutability": "nonpayable",
      "type": "function"
    },
    {
      "inputs": [
        {
          "internalType": "bool",
          "name": "_state",
          "type": "bool"
        }
      ],
      "name": "setOnlyWhitelisted",
      "outputs": [],
      "stateMutability": "nonpayable",
      "type": "function"
    },
    {
      "inputs": [
        {
          "internalType": "address[]",
          "name": "_users",
          "type": "address[]"
        }
      ],
      "name": "setWhitelistUsers",
      "outputs": [],
      "stateMutability": "nonpayable",
      "type": "function"
    },
    {
      "inputs": [
        {
          "internalType": "bytes4",
          "name": "interfaceId",
          "type": "bytes4"
        }
      ],
      "name": "supportsInterface",
      "outputs": [
        {
          "internalType": "bool",
          "name": "",
          "type": "bool"
        }
      ],
      "stateMutability": "view",
      "type": "function"
    },
    {
      "inputs": [],
      "name": "symbol",
      "outputs": [
        {
          "internalType": "string",
          "name": "",
          "type": "string"
        }
      ],
      "stateMutability": "view",
      "type": "function"
    },
    {
      "inputs": [
        {
          "internalType": "uint256",
          "name": "index",
          "type": "uint256"
        }
      ],
      "name": "tokenByIndex",
      "outputs": [
        {
          "internalType": "uint256",
          "name": "",
          "type": "uint256"
        }
      ],
      "stateMutability": "view",
      "type": "function"
    },
    {
      "inputs": [
        {
          "internalType": "address",
          "name": "owner",
          "type": "address"
        },
        {
          "internalType": "uint256",
          "name": "index",
          "type": "uint256"
        }
      ],
      "name": "tokenOfOwnerByIndex",
      "outputs": [
        {
          "internalType": "uint256",
          "name": "",
          "type": "uint256"
        }
      ],
      "stateMutability": "view",
      "type": "function"
    },
    {
      "inputs": [
        {
          "internalType": "uint256",
          "name": "tokenId",
          "type": "uint256"
        }
      ],
      "name": "tokenURI",
      "outputs": [
        {
          "internalType": "string",
          "name": "",
          "type": "string"
        }
      ],
      "stateMutability": "view",
      "type": "function"
    },
    {
      "inputs": [],
      "name": "totalSupply",
      "outputs": [
        {
          "internalType": "uint256",
          "name": "",
          "type": "uint256"
        }
      ],
      "stateMutability": "view",
      "type": "function"
    },
    {
      "inputs": [
        {
          "internalType": "address",
          "name": "from",
          "type": "address"
        },
        {
          "internalType": "address",
          "name": "to",
          "type": "address"
        },
        {
          "internalType": "uint256",
          "name": "tokenId",
          "type": "uint256"
        }
      ],
      "name": "transferFrom",
      "outputs": [],
      "stateMutability": "nonpayable",
      "type": "function"
    },
    {
      "inputs": [
        {
          "internalType": "address",
          "name": "newOwner",
          "type": "address"
        }
      ],
      "name": "transferOwnership",
      "outputs": [],
      "stateMutability": "nonpayable",
      "type": "function"
    },
    {
      "inputs": [
        {
          "internalType": "address",
          "name": "_owner",
          "type": "address"
        }
      ],
      "name": "walletOfOwner",
      "outputs": [
        {
          "internalType": "uint256[]",
          "name": "",
          "type": "uint256[]"
        }
      ],
      "stateMutability": "view",
      "type": "function"
    },
    {
      "inputs": [
        {
          "internalType": "uint256",
          "name": "",
          "type": "uint256"
        }
      ],
      "name": "whitelistedAddresses",
      "outputs": [
        {
          "internalType": "address",
          "name": "",
          "type": "address"
        }
      ],
      "stateMutability": "view",
      "type": "function"
    },
    {
      "inputs": [],
      "name": "withdraw",
      "outputs": [],
      "stateMutability": "payable",
      "type": "function"
    }
  ],
  "bytecode": "0x60806040526040518060400160405280600581526020017f2e6a736f6e000000000000000000000000000000000000000000000000000000815250600c9080519060200190620000519291906200026d565b5067058d15e176280000600e5567058d15e176280000600f5561271060105560056011556001601260006101000a81548160ff0219169083151502179055506000601260016101000a81548160ff02191690831515021790555060056013556001601460006101000a81548160ff021916908315150217905550348015620000d857600080fd5b506040518060400160405280600d81526020017f4e617469766520416c69656e73000000000000000000000000000000000000008152506040518060400160405280600281526020017f4e4100000000000000000000000000000000000000000000000000000000000081525081600090805190602001906200015d9291906200026d565b508060019080519060200190620001769291906200026d565b505050620001996200018d6200019f60201b60201c565b620001a760201b60201c565b62000382565b600033905090565b6000600a60009054906101000a900473ffffffffffffffffffffffffffffffffffffffff16905081600a60006101000a81548173ffffffffffffffffffffffffffffffffffffffff021916908373ffffffffffffffffffffffffffffffffffffffff1602179055508173ffffffffffffffffffffffffffffffffffffffff168173ffffffffffffffffffffffffffffffffffffffff167f8be0079c531659141344cd1fd0a4f28419497f9722a3daafe3b4186f6b6457e060405160405180910390a35050565b8280546200027b906200031d565b90600052602060002090601f0160209004810192826200029f5760008555620002eb565b82601f10620002ba57805160ff1916838001178555620002eb565b82800160010185558215620002eb579182015b82811115620002ea578251825591602001919060010190620002cd565b5b509050620002fa9190620002fe565b5090565b5b8082111562000319576000816000905550600101620002ff565b5090565b600060028204905060018216806200033657607f821691505b602082108114156200034d576200034c62000353565b5b50919050565b7f4e487b7100000000000000000000000000000000000000000000000000000000600052602260045260246000fd5b6157a980620003926000396000f3fe6080604052600436106102ae5760003560e01c806355f804b311610175578063b88d4fde116100dc578063d0eb26b011610095578063da53c5b01161006f578063da53c5b014610aa4578063e985e9c514610acd578063f2c4ce1e14610b0a578063f2fde38b14610b33576102ae565b8063d0eb26b014610a27578063d5abeb0114610a50578063da3ef23f14610a7b576102ae565b8063b88d4fde14610905578063ba4e5c491461092e578063ba7d2c761461096b578063bae3aaa614610996578063c6682862146109bf578063c87b56dd146109ea576102ae565b8063715018a61161012e578063715018a6146108285780638da5cb5b1461083f57806395d89b411461086a5780639c70b51214610895578063a0712d68146108c0578063a22cb465146108dc576102ae565b806355f804b3146107065780635c975abb1461072f5780636352211e1461075a5780636c0360eb146107975780636f8b44b0146107c257806370a08231146107eb576102ae565b806323b872dd1161021957806342842e0e116101d257806342842e0e146105e4578063438b63001461060d57806344a0d68a1461064a5780634bfb8ed3146106735780634f6ccce71461069e57806351830227146106db576102ae565b806323b872dd146104e55780632beab4b71461050e5780632f745c59146105375780633af32abf146105745780633c952764146105b15780633ccfd60b146105da576102ae565b806310ad70801161026b57806310ad7080146103d557806313faede6146103fe57806318160ddd1461042957806318cae269146104545780631c34698214610491578063239c70ae146104ba576102ae565b806301ffc9a7146102b357806306fdde03146102f0578063081812fc1461031b578063081c8c4414610358578063088a4ed014610383578063095ea7b3146103ac575b600080fd5b3480156102bf57600080fd5b506102da60048036038101906102d591906140de565b610b5c565b6040516102e79190614811565b60405180910390f35b3480156102fc57600080fd5b50610305610bd6565b604051610312919061482c565b60405180910390f35b34801561032757600080fd5b50610342600480360381019061033d9190614171565b610c68565b60405161034f9190614788565b60405180910390f35b34801561036457600080fd5b5061036d610ced565b60405161037a919061482c565b60405180910390f35b34801561038f57600080fd5b506103aa60048036038101906103a59190614171565b610d7b565b005b3480156103b857600080fd5b506103d360048036038101906103ce9190613fbf565b610e01565b005b3480156103e157600080fd5b506103fc60048036038101906103f791906140b5565b610f19565b005b34801561040a57600080fd5b50610413610fb2565b6040516104209190614bae565b60405180910390f35b34801561043557600080fd5b5061043e610fb8565b60405161044b9190614bae565b60405180910390f35b34801561046057600080fd5b5061047b60048036038101906104769190613e54565b610fc5565b6040516104889190614bae565b60405180910390f35b34801561049d57600080fd5b506104b860048036038101906104b391906140b5565b610fdd565b005b3480156104c657600080fd5b506104cf611076565b6040516104dc9190614bae565b60405180910390f35b3480156104f157600080fd5b5061050c60048036038101906105079190613eb9565b61107c565b005b34801561051a57600080fd5b5061053560048036038101906105309190613ffb565b6110dc565b005b34801561054357600080fd5b5061055e60048036038101906105599190613fbf565b61117c565b60405161056b9190614bae565b60405180910390f35b34801561058057600080fd5b5061059b60048036038101906105969190613e54565b611221565b6040516105a89190614811565b60405180910390f35b3480156105bd57600080fd5b506105d860048036038101906105d391906140b5565b6112f6565b005b6105e261138f565b005b3480156105f057600080fd5b5061060b60048036038101906106069190613eb9565b61148b565b005b34801561061957600080fd5b50610634600480360381019061062f9190613e54565b6114ab565b60405161064191906147ef565b60405180910390f35b34801561065657600080fd5b50610671600480360381019061066c9190614171565b6115a5565b005b34801561067f57600080fd5b5061068861162b565b6040516106959190614bae565b60405180910390f35b3480156106aa57600080fd5b506106c560048036038101906106c09190614171565b611631565b6040516106d29190614bae565b60405180910390f35b3480156106e757600080fd5b506106f06116c8565b6040516106fd9190614811565b60405180910390f35b34801561071257600080fd5b5061072d60048036038101906107289190614130565b6116db565b005b34801561073b57600080fd5b50610744611771565b6040516107519190614811565b60405180910390f35b34801561076657600080fd5b50610781600480360381019061077c9190614171565b611784565b60405161078e9190614788565b60405180910390f35b3480156107a357600080fd5b506107ac611836565b6040516107b9919061482c565b60405180910390f35b3480156107ce57600080fd5b506107e960048036038101906107e49190614171565b6118c4565b005b3480156107f757600080fd5b50610812600480360381019061080d9190613e54565b61194a565b60405161081f9190614bae565b60405180910390f35b34801561083457600080fd5b5061083d611a02565b005b34801561084b57600080fd5b50610854611a8a565b6040516108619190614788565b60405180910390f35b34801561087657600080fd5b5061087f611ab4565b60405161088c919061482c565b60405180910390f35b3480156108a157600080fd5b506108aa611b46565b6040516108b79190614811565b60405180910390f35b6108da60048036038101906108d59190614171565b611b59565b005b3480156108e857600080fd5b5061090360048036038101906108fe9190613f83565b611ef7565b005b34801561091157600080fd5b5061092c60048036038101906109279190613f08565b611f0d565b005b34801561093a57600080fd5b5061095560048036038101906109509190614171565b611f6f565b6040516109629190614788565b60405180910390f35b34801561097757600080fd5b50610980611fae565b60405161098d9190614bae565b60405180910390f35b3480156109a257600080fd5b506109bd60048036038101906109b89190614171565b611fb4565b005b3480156109cb57600080fd5b506109d461203a565b6040516109e1919061482c565b60405180910390f35b3480156109f657600080fd5b50610a116004803603810190610a0c9190614171565b6120c8565b604051610a1e919061482c565b60405180910390f35b348015610a3357600080fd5b50610a4e6004803603810190610a499190614171565b612221565b005b348015610a5c57600080fd5b50610a656122a7565b604051610a729190614bae565b60405180910390f35b348015610a8757600080fd5b50610aa26004803603810190610a9d9190614130565b6122ad565b005b348015610ab057600080fd5b50610acb6004803603810190610ac69190614040565b612343565b005b348015610ad957600080fd5b50610af46004803603810190610aef9190613e7d565b6125d2565b604051610b019190614811565b60405180910390f35b348015610b1657600080fd5b50610b316004803603810190610b2c9190614130565b612666565b005b348015610b3f57600080fd5b50610b5a6004803603810190610b559190613e54565b6126fc565b005b60007f780e9d63000000000000000000000000000000000000000000000000000000007bffffffffffffffffffffffffffffffffffffffffffffffffffffffff1916827bffffffffffffffffffffffffffffffffffffffffffffffffffffffff19161480610bcf5750610bce826127f4565b5b9050919050565b606060008054610be590614eb7565b80601f0160208091040260200160405190810160405280929190818152602001828054610c1190614eb7565b8015610c5e5780601f10610c3357610100808354040283529160200191610c5e565b820191906000526020600020905b815481529060010190602001808311610c4157829003601f168201915b5050505050905090565b6000610c73826128d6565b610cb2576040517f08c379a0000000000000000000000000000000000000000000000000000000008152600401610ca990614a6e565b60405180910390fd5b6004600083815260200190815260200160002060009054906101000a900473ffffffffffffffffffffffffffffffffffffffff169050919050565b600d8054610cfa90614eb7565b80601f0160208091040260200160405190810160405280929190818152602001828054610d2690614eb7565b8015610d735780601f10610d4857610100808354040283529160200191610d73565b820191906000526020600020905b815481529060010190602001808311610d5657829003601f168201915b505050505081565b610d83612942565b73ffffffffffffffffffffffffffffffffffffffff16610da1611a8a565b73ffffffffffffffffffffffffffffffffffffffff1614610df7576040517f08c379a0000000000000000000000000000000000000000000000000000000008152600401610dee90614a8e565b60405180910390fd5b8060118190555050565b6000610e0c82611784565b90508073ffffffffffffffffffffffffffffffffffffffff168373ffffffffffffffffffffffffffffffffffffffff161415610e7d576040517f08c379a0000000000000000000000000000000000000000000000000000000008152600401610e7490614aee565b60405180910390fd5b8073ffffffffffffffffffffffffffffffffffffffff16610e9c612942565b73ffffffffffffffffffffffffffffffffffffffff161480610ecb5750610eca81610ec5612942565b6125d2565b5b610f0a576040517f08c379a0000000000000000000000000000000000000000000000000000000008152600401610f01906149ae565b60405180910390fd5b610f14838361294a565b505050565b610f21612942565b73ffffffffffffffffffffffffffffffffffffffff16610f3f611a8a565b73ffffffffffffffffffffffffffffffffffffffff1614610f95576040517f08c379a0000000000000000000000000000000000000000000000000000000008152600401610f8c90614a8e565b60405180910390fd5b80601260016101000a81548160ff02191690831515021790555050565b600e5481565b6000600880549050905090565b60166020528060005260406000206000915090505481565b610fe5612942565b73ffffffffffffffffffffffffffffffffffffffff16611003611a8a565b73ffffffffffffffffffffffffffffffffffffffff1614611059576040517f08c379a000000000000000000000000000000000000000000000000000000000815260040161105090614a8e565b60405180910390fd5b80601260006101000a81548160ff02191690831515021790555050565b60115481565b61108d611087612942565b82612a03565b6110cc576040517f08c379a00000000000000000000000000000000000000000000000000000000081526004016110c390614b2e565b60405180910390fd5b6110d7838383612ae1565b505050565b6110e4612942565b73ffffffffffffffffffffffffffffffffffffffff16611102611a8a565b73ffffffffffffffffffffffffffffffffffffffff1614611158576040517f08c379a000000000000000000000000000000000000000000000000000000000815260040161114f90614a8e565b60405180910390fd5b601560006111669190613b23565b818160159190611177929190613b44565b505050565b60006111878361194a565b82106111c8576040517f08c379a00000000000000000000000000000000000000000000000000000000081526004016111bf9061486e565b60405180910390fd5b600660008473ffffffffffffffffffffffffffffffffffffffff1673ffffffffffffffffffffffffffffffffffffffff168152602001908152602001600020600083815260200190815260200160002054905092915050565b600080600090505b6015805490508110156112eb578273ffffffffffffffffffffffffffffffffffffffff1660158281548110611287577f4e487b7100000000000000000000000000000000000000000000000000000000600052603260045260246000fd5b9060005260206000200160009054906101000a900473ffffffffffffffffffffffffffffffffffffffff1673ffffffffffffffffffffffffffffffffffffffff1614156112d85760019150506112f1565b80806112e390614f1a565b915050611229565b50600090505b919050565b6112fe612942565b73ffffffffffffffffffffffffffffffffffffffff1661131c611a8a565b73ffffffffffffffffffffffffffffffffffffffff1614611372576040517f08c379a000000000000000000000000000000000000000000000000000000000815260040161136990614a8e565b60405180910390fd5b80601460006101000a81548160ff02191690831515021790555050565b611397612942565b73ffffffffffffffffffffffffffffffffffffffff166113b5611a8a565b73ffffffffffffffffffffffffffffffffffffffff161461140b576040517f08c379a000000000000000000000000000000000000000000000000000000000815260040161140290614a8e565b60405180910390fd5b6000611415611a8a565b73ffffffffffffffffffffffffffffffffffffffff164760405161143890614773565b60006040518083038185875af1925050503d8060008114611475576040519150601f19603f3d011682016040523d82523d6000602084013e61147a565b606091505b505090508061148857600080fd5b50565b6114a683838360405180602001604052806000815250611f0d565b505050565b606060006114b88361194a565b905060008167ffffffffffffffff8111156114fc577f4e487b7100000000000000000000000000000000000000000000000000000000600052604160045260246000fd5b60405190808252806020026020018201604052801561152a5781602001602082028036833780820191505090505b50905060005b8281101561159a57611542858261117c565b82828151811061157b577f4e487b7100000000000000000000000000000000000000000000000000000000600052603260045260246000fd5b602002602001018181525050808061159290614f1a565b915050611530565b508092505050919050565b6115ad612942565b73ffffffffffffffffffffffffffffffffffffffff166115cb611a8a565b73ffffffffffffffffffffffffffffffffffffffff1614611621576040517f08c379a000000000000000000000000000000000000000000000000000000000815260040161161890614a8e565b60405180910390fd5b80600e8190555050565b600f5481565b600061163b610fb8565b821061167c576040517f08c379a000000000000000000000000000000000000000000000000000000000815260040161167390614b4e565b60405180910390fd5b600882815481106116b6577f4e487b7100000000000000000000000000000000000000000000000000000000600052603260045260246000fd5b90600052602060002001549050919050565b601260019054906101000a900460ff1681565b6116e3612942565b73ffffffffffffffffffffffffffffffffffffffff16611701611a8a565b73ffffffffffffffffffffffffffffffffffffffff1614611757576040517f08c379a000000000000000000000000000000000000000000000000000000000815260040161174e90614a8e565b60405180910390fd5b80600b908051906020019061176d929190613be4565b5050565b601260009054906101000a900460ff1681565b6000806002600084815260200190815260200160002060009054906101000a900473ffffffffffffffffffffffffffffffffffffffff169050600073ffffffffffffffffffffffffffffffffffffffff168173ffffffffffffffffffffffffffffffffffffffff16141561182d576040517f08c379a0000000000000000000000000000000000000000000000000000000008152600401611824906149ee565b60405180910390fd5b80915050919050565b600b805461184390614eb7565b80601f016020809104026020016040519081016040528092919081815260200182805461186f90614eb7565b80156118bc5780601f10611891576101008083540402835291602001916118bc565b820191906000526020600020905b81548152906001019060200180831161189f57829003601f168201915b505050505081565b6118cc612942565b73ffffffffffffffffffffffffffffffffffffffff166118ea611a8a565b73ffffffffffffffffffffffffffffffffffffffff1614611940576040517f08c379a000000000000000000000000000000000000000000000000000000000815260040161193790614a8e565b60405180910390fd5b8060108190555050565b60008073ffffffffffffffffffffffffffffffffffffffff168273ffffffffffffffffffffffffffffffffffffffff1614156119bb576040517f08c379a00000000000000000000000000000000000000000000000000000000081526004016119b2906149ce565b60405180910390fd5b600360008373ffffffffffffffffffffffffffffffffffffffff1673ffffffffffffffffffffffffffffffffffffffff168152602001908152602001600020549050919050565b611a0a612942565b73ffffffffffffffffffffffffffffffffffffffff16611a28611a8a565b73ffffffffffffffffffffffffffffffffffffffff1614611a7e576040517f08c379a0000000000000000000000000000000000000000000000000000000008152600401611a7590614a8e565b60405180910390fd5b611a886000612d48565b565b6000600a60009054906101000a900473ffffffffffffffffffffffffffffffffffffffff16905090565b606060018054611ac390614eb7565b80601f0160208091040260200160405190810160405280929190818152602001828054611aef90614eb7565b8015611b3c5780601f10611b1157610100808354040283529160200191611b3c565b820191906000526020600020905b815481529060010190602001808311611b1f57829003601f168201915b5050505050905090565b601460009054906101000a900460ff1681565b601260009054906101000a900460ff1615611ba9576040517f08c379a0000000000000000000000000000000000000000000000000000000008152600401611ba090614ace565b60405180910390fd5b6000611bb3610fb8565b905060008211611bf8576040517f08c379a0000000000000000000000000000000000000000000000000000000008152600401611bef90614b8e565b60405180910390fd5b601154821115611c3d576040517f08c379a0000000000000000000000000000000000000000000000000000000008152600401611c3490614a2e565b60405180910390fd5b6010548282611c4c9190614cec565b1115611c8d576040517f08c379a0000000000000000000000000000000000000000000000000000000008152600401611c8490614a0e565b60405180910390fd5b611c95611a8a565b73ffffffffffffffffffffffffffffffffffffffff163373ffffffffffffffffffffffffffffffffffffffff1614611e675760011515601460009054906101000a900460ff1615151415611e1557611cec33611221565b611d2b576040517f08c379a0000000000000000000000000000000000000000000000000000000008152600401611d2290614b6e565b60405180910390fd5b6000601660003373ffffffffffffffffffffffffffffffffffffffff1673ffffffffffffffffffffffffffffffffffffffff1681526020019081526020016000205490506013548382611d7e9190614cec565b1115611dbf576040517f08c379a0000000000000000000000000000000000000000000000000000000008152600401611db69061490e565b60405180910390fd5b82600f54611dcd9190614d73565b341015611e0f576040517f08c379a0000000000000000000000000000000000000000000000000000000008152600401611e0690614b0e565b60405180910390fd5b50611e66565b81600e54611e239190614d73565b341015611e65576040517f08c379a0000000000000000000000000000000000000000000000000000000008152600401611e5c90614b0e565b60405180910390fd5b5b5b6000600190505b828111611ef257601660003373ffffffffffffffffffffffffffffffffffffffff1673ffffffffffffffffffffffffffffffffffffffff1681526020019081526020016000206000815480929190611ec590614f1a565b9190505550611edf338284611eda9190614cec565b612e0e565b8080611eea90614f1a565b915050611e6e565b505050565b611f09611f02612942565b8383612e2c565b5050565b611f1e611f18612942565b83612a03565b611f5d576040517f08c379a0000000000000000000000000000000000000000000000000000000008152600401611f5490614b2e565b60405180910390fd5b611f6984848484612f99565b50505050565b60158181548110611f7f57600080fd5b906000526020600020016000915054906101000a900473ffffffffffffffffffffffffffffffffffffffff1681565b60135481565b611fbc612942565b73ffffffffffffffffffffffffffffffffffffffff16611fda611a8a565b73ffffffffffffffffffffffffffffffffffffffff1614612030576040517f08c379a000000000000000000000000000000000000000000000000000000000815260040161202790614a8e565b60405180910390fd5b80600f8190555050565b600c805461204790614eb7565b80601f016020809104026020016040519081016040528092919081815260200182805461207390614eb7565b80156120c05780601f10612095576101008083540402835291602001916120c0565b820191906000526020600020905b8154815290600101906020018083116120a357829003601f168201915b505050505081565b60606120d3826128d6565b612112576040517f08c379a000000000000000000000000000000000000000000000000000000000815260040161210990614aae565b60405180910390fd5b60001515601260019054906101000a900460ff16151514156121c057600d805461213b90614eb7565b80601f016020809104026020016040519081016040528092919081815260200182805461216790614eb7565b80156121b45780601f10612189576101008083540402835291602001916121b4565b820191906000526020600020905b81548152906001019060200180831161219757829003601f168201915b5050505050905061221c565b60006121ca612ff5565b905060008151116121ea5760405180602001604052806000815250612218565b806121f484613087565b600c60405160200161220893929190614742565b6040516020818303038152906040525b9150505b919050565b612229612942565b73ffffffffffffffffffffffffffffffffffffffff16612247611a8a565b73ffffffffffffffffffffffffffffffffffffffff161461229d576040517f08c379a000000000000000000000000000000000000000000000000000000000815260040161229490614a8e565b60405180910390fd5b8060138190555050565b60105481565b6122b5612942565b73ffffffffffffffffffffffffffffffffffffffff166122d3611a8a565b73ffffffffffffffffffffffffffffffffffffffff1614612329576040517f08c379a000000000000000000000000000000000000000000000000000000000815260040161232090614a8e565b60405180910390fd5b80600c908051906020019061233f929190613be4565b5050565b61234b612942565b73ffffffffffffffffffffffffffffffffffffffff16612369611a8a565b73ffffffffffffffffffffffffffffffffffffffff16146123bf576040517f08c379a00000000000000000000000000000000000000000000000000000000081526004016123b690614a8e565b60405180910390fd5b818190508484905014612407576040517f08c379a00000000000000000000000000000000000000000000000000000000081526004016123fe9061498e565b60405180910390fd5b600080612412610fb8565b905060005b868690508110156124805786868281811061245b577f4e487b7100000000000000000000000000000000000000000000000000000000600052603260045260246000fd5b905060200201358361246d9190614cec565b92508061247990614f1a565b9050612417565b50601054600183836124929190614cec565b61249c9190614cec565b11156124dd576040517f08c379a00000000000000000000000000000000000000000000000000000000081526004016124d49061484e565b60405180910390fd5b60005b848490508110156125c95760005b878783818110612527577f4e487b7100000000000000000000000000000000000000000000000000000000600052603260045260246000fd5b905060200201358110156125b757612598868684818110612571577f4e487b7100000000000000000000000000000000000000000000000000000000600052603260045260246000fd5b90506020020160208101906125869190613e54565b6001856125939190614cec565b613234565b82806125a390614f1a565b935050806125b090614f1a565b90506124ee565b50806125c290614f1a565b90506124e0565b50505050505050565b6000600560008473ffffffffffffffffffffffffffffffffffffffff1673ffffffffffffffffffffffffffffffffffffffff16815260200190815260200160002060008373ffffffffffffffffffffffffffffffffffffffff1673ffffffffffffffffffffffffffffffffffffffff16815260200190815260200160002060009054906101000a900460ff16905092915050565b61266e612942565b73ffffffffffffffffffffffffffffffffffffffff1661268c611a8a565b73ffffffffffffffffffffffffffffffffffffffff16146126e2576040517f08c379a00000000000000000000000000000000000000000000000000000000081526004016126d990614a8e565b60405180910390fd5b80600d90805190602001906126f8929190613be4565b5050565b612704612942565b73ffffffffffffffffffffffffffffffffffffffff16612722611a8a565b73ffffffffffffffffffffffffffffffffffffffff1614612778576040517f08c379a000000000000000000000000000000000000000000000000000000000815260040161276f90614a8e565b60405180910390fd5b600073ffffffffffffffffffffffffffffffffffffffff168173ffffffffffffffffffffffffffffffffffffffff1614156127e8576040517f08c379a00000000000000000000000000000000000000000000000000000000081526004016127df906148ae565b60405180910390fd5b6127f181612d48565b50565b60007f80ac58cd000000000000000000000000000000000000000000000000000000007bffffffffffffffffffffffffffffffffffffffffffffffffffffffff1916827bffffffffffffffffffffffffffffffffffffffffffffffffffffffff191614806128bf57507f5b5e139f000000000000000000000000000000000000000000000000000000007bffffffffffffffffffffffffffffffffffffffffffffffffffffffff1916827bffffffffffffffffffffffffffffffffffffffffffffffffffffffff1916145b806128cf57506128ce8261340e565b5b9050919050565b60008073ffffffffffffffffffffffffffffffffffffffff166002600084815260200190815260200160002060009054906101000a900473ffffffffffffffffffffffffffffffffffffffff1673ffffffffffffffffffffffffffffffffffffffff1614159050919050565b600033905090565b816004600083815260200190815260200160002060006101000a81548173ffffffffffffffffffffffffffffffffffffffff021916908373ffffffffffffffffffffffffffffffffffffffff160217905550808273ffffffffffffffffffffffffffffffffffffffff166129bd83611784565b73ffffffffffffffffffffffffffffffffffffffff167f8c5be1e5ebec7d5bd14f71427d1e84f3dd0314c0f7b2291e5b200ac8c7c3b92560405160405180910390a45050565b6000612a0e826128d6565b612a4d576040517f08c379a0000000000000000000000000000000000000000000000000000000008152600401612a449061496e565b60405180910390fd5b6000612a5883611784565b90508073ffffffffffffffffffffffffffffffffffffffff168473ffffffffffffffffffffffffffffffffffffffff161480612a9a5750612a9981856125d2565b5b80612ad857508373ffffffffffffffffffffffffffffffffffffffff16612ac084610c68565b73ffffffffffffffffffffffffffffffffffffffff16145b91505092915050565b8273ffffffffffffffffffffffffffffffffffffffff16612b0182611784565b73ffffffffffffffffffffffffffffffffffffffff1614612b57576040517f08c379a0000000000000000000000000000000000000000000000000000000008152600401612b4e906148ce565b60405180910390fd5b600073ffffffffffffffffffffffffffffffffffffffff168273ffffffffffffffffffffffffffffffffffffffff161415612bc7576040517f08c379a0000000000000000000000000000000000000000000000000000000008152600401612bbe9061492e565b60405180910390fd5b612bd2838383613478565b612bdd60008261294a565b6001600360008573ffffffffffffffffffffffffffffffffffffffff1673ffffffffffffffffffffffffffffffffffffffff1681526020019081526020016000206000828254612c2d9190614dcd565b925050819055506001600360008473ffffffffffffffffffffffffffffffffffffffff1673ffffffffffffffffffffffffffffffffffffffff1681526020019081526020016000206000828254612c849190614cec565b92505081905550816002600083815260200190815260200160002060006101000a81548173ffffffffffffffffffffffffffffffffffffffff021916908373ffffffffffffffffffffffffffffffffffffffff160217905550808273ffffffffffffffffffffffffffffffffffffffff168473ffffffffffffffffffffffffffffffffffffffff167fddf252ad1be2c89b69c2b068fc378daa952ba7f163c4a11628f55a4df523b3ef60405160405180910390a4612d4383838361358c565b505050565b6000600a60009054906101000a900473ffffffffffffffffffffffffffffffffffffffff16905081600a60006101000a81548173ffffffffffffffffffffffffffffffffffffffff021916908373ffffffffffffffffffffffffffffffffffffffff1602179055508173ffffffffffffffffffffffffffffffffffffffff168173ffffffffffffffffffffffffffffffffffffffff167f8be0079c531659141344cd1fd0a4f28419497f9722a3daafe3b4186f6b6457e060405160405180910390a35050565b612e28828260405180602001604052806000815250613591565b5050565b8173ffffffffffffffffffffffffffffffffffffffff168373ffffffffffffffffffffffffffffffffffffffff161415612e9b576040517f08c379a0000000000000000000000000000000000000000000000000000000008152600401612e929061494e565b60405180910390fd5b80600560008573ffffffffffffffffffffffffffffffffffffffff1673ffffffffffffffffffffffffffffffffffffffff16815260200190815260200160002060008473ffffffffffffffffffffffffffffffffffffffff1673ffffffffffffffffffffffffffffffffffffffff16815260200190815260200160002060006101000a81548160ff0219169083151502179055508173ffffffffffffffffffffffffffffffffffffffff168373ffffffffffffffffffffffffffffffffffffffff167f17307eab39ab6107e8899845ad3d59bd9653f200f220920489ca2b5937696c3183604051612f8c9190614811565b60405180910390a3505050565b612fa4848484612ae1565b612fb0848484846135ec565b612fef576040517f08c379a0000000000000000000000000000000000000000000000000000000008152600401612fe69061488e565b60405180910390fd5b50505050565b6060600b805461300490614eb7565b80601f016020809104026020016040519081016040528092919081815260200182805461303090614eb7565b801561307d5780601f106130525761010080835404028352916020019161307d565b820191906000526020600020905b81548152906001019060200180831161306057829003601f168201915b5050505050905090565b606060008214156130cf576040518060400160405280600181526020017f3000000000000000000000000000000000000000000000000000000000000000815250905061322f565b600082905060005b600082146131015780806130ea90614f1a565b915050600a826130fa9190614d42565b91506130d7565b60008167ffffffffffffffff811115613143577f4e487b7100000000000000000000000000000000000000000000000000000000600052604160045260246000fd5b6040519080825280601f01601f1916602001820160405280156131755781602001600182028036833780820191505090505b5090505b600085146132285760018261318e9190614dcd565b9150600a8561319d9190614f63565b60306131a99190614cec565b60f81b8183815181106131e5577f4e487b7100000000000000000000000000000000000000000000000000000000600052603260045260246000fd5b60200101907effffffffffffffffffffffffffffffffffffffffffffffffffffffffffffff1916908160001a905350600a856132219190614d42565b9450613179565b8093505050505b919050565b600073ffffffffffffffffffffffffffffffffffffffff168273ffffffffffffffffffffffffffffffffffffffff1614156132a4576040517f08c379a000000000000000000000000000000000000000000000000000000000815260040161329b90614a4e565b60405180910390fd5b6132ad816128d6565b156132ed576040517f08c379a00000000000000000000000000000000000000000000000000000000081526004016132e4906148ee565b60405180910390fd5b6132f960008383613478565b6001600360008473ffffffffffffffffffffffffffffffffffffffff1673ffffffffffffffffffffffffffffffffffffffff16815260200190815260200160002060008282546133499190614cec565b92505081905550816002600083815260200190815260200160002060006101000a81548173ffffffffffffffffffffffffffffffffffffffff021916908373ffffffffffffffffffffffffffffffffffffffff160217905550808273ffffffffffffffffffffffffffffffffffffffff16600073ffffffffffffffffffffffffffffffffffffffff167fddf252ad1be2c89b69c2b068fc378daa952ba7f163c4a11628f55a4df523b3ef60405160405180910390a461340a6000838361358c565b5050565b60007f01ffc9a7000000000000000000000000000000000000000000000000000000007bffffffffffffffffffffffffffffffffffffffffffffffffffffffff1916827bffffffffffffffffffffffffffffffffffffffffffffffffffffffff1916149050919050565b613483838383613783565b600073ffffffffffffffffffffffffffffffffffffffff168373ffffffffffffffffffffffffffffffffffffffff1614156134c6576134c181613788565b613505565b8173ffffffffffffffffffffffffffffffffffffffff168373ffffffffffffffffffffffffffffffffffffffff16146135045761350383826137d1565b5b5b600073ffffffffffffffffffffffffffffffffffffffff168273ffffffffffffffffffffffffffffffffffffffff161415613548576135438161393e565b613587565b8273ffffffffffffffffffffffffffffffffffffffff168273ffffffffffffffffffffffffffffffffffffffff1614613586576135858282613a81565b5b5b505050565b505050565b61359b8383613234565b6135a860008484846135ec565b6135e7576040517f08c379a00000000000000000000000000000000000000000000000000000000081526004016135de9061488e565b60405180910390fd5b505050565b600061360d8473ffffffffffffffffffffffffffffffffffffffff16613b00565b15613776578373ffffffffffffffffffffffffffffffffffffffff1663150b7a02613636612942565b8786866040518563ffffffff1660e01b815260040161365894939291906147a3565b602060405180830381600087803b15801561367257600080fd5b505af19250505080156136a357506040513d601f19601f820116820180604052508101906136a09190614107565b60015b613726573d80600081146136d3576040519150601f19603f3d011682016040523d82523d6000602084013e6136d8565b606091505b5060008151141561371e576040517f08c379a00000000000000000000000000000000000000000000000000000000081526004016137159061488e565b60405180910390fd5b805181602001fd5b63150b7a0260e01b7bffffffffffffffffffffffffffffffffffffffffffffffffffffffff1916817bffffffffffffffffffffffffffffffffffffffffffffffffffffffff19161491505061377b565b600190505b949350505050565b505050565b6008805490506009600083815260200190815260200160002081905550600881908060018154018082558091505060019003906000526020600020016000909190919091505550565b600060016137de8461194a565b6137e89190614dcd565b90506000600760008481526020019081526020016000205490508181146138cd576000600660008673ffffffffffffffffffffffffffffffffffffffff1673ffffffffffffffffffffffffffffffffffffffff168152602001908152602001600020600084815260200190815260200160002054905080600660008773ffffffffffffffffffffffffffffffffffffffff1673ffffffffffffffffffffffffffffffffffffffff168152602001908152602001600020600084815260200190815260200160002081905550816007600083815260200190815260200160002081905550505b6007600084815260200190815260200160002060009055600660008573ffffffffffffffffffffffffffffffffffffffff1673ffffffffffffffffffffffffffffffffffffffff16815260200190815260200160002060008381526020019081526020016000206000905550505050565b600060016008805490506139529190614dcd565b90506000600960008481526020019081526020016000205490506000600883815481106139a8577f4e487b7100000000000000000000000000000000000000000000000000000000600052603260045260246000fd5b9060005260206000200154905080600883815481106139f0577f4e487b7100000000000000000000000000000000000000000000000000000000600052603260045260246000fd5b906000526020600020018190555081600960008381526020019081526020016000208190555060096000858152602001908152602001600020600090556008805480613a65577f4e487b7100000000000000000000000000000000000000000000000000000000600052603160045260246000fd5b6001900381819060005260206000200160009055905550505050565b6000613a8c8361194a565b905081600660008573ffffffffffffffffffffffffffffffffffffffff1673ffffffffffffffffffffffffffffffffffffffff168152602001908152602001600020600083815260200190815260200160002081905550806007600084815260200190815260200160002081905550505050565b6000808273ffffffffffffffffffffffffffffffffffffffff163b119050919050565b5080546000825590600052602060002090810190613b419190613c6a565b50565b828054828255906000526020600020908101928215613bd3579160200282015b82811115613bd257823573ffffffffffffffffffffffffffffffffffffffff168260006101000a81548173ffffffffffffffffffffffffffffffffffffffff021916908373ffffffffffffffffffffffffffffffffffffffff16021790555091602001919060010190613b64565b5b509050613be09190613c6a565b5090565b828054613bf090614eb7565b90600052602060002090601f016020900481019282613c125760008555613c59565b82601f10613c2b57805160ff1916838001178555613c59565b82800160010185558215613c59579182015b82811115613c58578251825591602001919060010190613c3d565b5b509050613c669190613c6a565b5090565b5b80821115613c83576000816000905550600101613c6b565b5090565b6000613c9a613c9584614bee565b614bc9565b905082815260208101848484011115613cb257600080fd5b613cbd848285614e75565b509392505050565b6000613cd8613cd384614c1f565b614bc9565b905082815260208101848484011115613cf057600080fd5b613cfb848285614e75565b509392505050565b600081359050613d1281615717565b92915050565b60008083601f840112613d2a57600080fd5b8235905067ffffffffffffffff811115613d4357600080fd5b602083019150836020820283011115613d5b57600080fd5b9250929050565b60008083601f840112613d7457600080fd5b8235905067ffffffffffffffff811115613d8d57600080fd5b602083019150836020820283011115613da557600080fd5b9250929050565b600081359050613dbb8161572e565b92915050565b600081359050613dd081615745565b92915050565b600081519050613de581615745565b92915050565b600082601f830112613dfc57600080fd5b8135613e0c848260208601613c87565b91505092915050565b600082601f830112613e2657600080fd5b8135613e36848260208601613cc5565b91505092915050565b600081359050613e4e8161575c565b92915050565b600060208284031215613e6657600080fd5b6000613e7484828501613d03565b91505092915050565b60008060408385031215613e9057600080fd5b6000613e9e85828601613d03565b9250506020613eaf85828601613d03565b9150509250929050565b600080600060608486031215613ece57600080fd5b6000613edc86828701613d03565b9350506020613eed86828701613d03565b9250506040613efe86828701613e3f565b9150509250925092565b60008060008060808587031215613f1e57600080fd5b6000613f2c87828801613d03565b9450506020613f3d87828801613d03565b9350506040613f4e87828801613e3f565b925050606085013567ffffffffffffffff811115613f6b57600080fd5b613f7787828801613deb565b91505092959194509250565b60008060408385031215613f9657600080fd5b6000613fa485828601613d03565b9250506020613fb585828601613dac565b9150509250929050565b60008060408385031215613fd257600080fd5b6000613fe085828601613d03565b9250506020613ff185828601613e3f565b9150509250929050565b6000806020838503121561400e57600080fd5b600083013567ffffffffffffffff81111561402857600080fd5b61403485828601613d18565b92509250509250929050565b6000806000806040858703121561405657600080fd5b600085013567ffffffffffffffff81111561407057600080fd5b61407c87828801613d62565b9450945050602085013567ffffffffffffffff81111561409b57600080fd5b6140a787828801613d18565b925092505092959194509250565b6000602082840312156140c757600080fd5b60006140d584828501613dac565b91505092915050565b6000602082840312156140f057600080fd5b60006140fe84828501613dc1565b91505092915050565b60006020828403121561411957600080fd5b600061412784828501613dd6565b91505092915050565b60006020828403121561414257600080fd5b600082013567ffffffffffffffff81111561415c57600080fd5b61416884828501613e15565b91505092915050565b60006020828403121561418357600080fd5b600061419184828501613e3f565b91505092915050565b60006141a68383614724565b60208301905092915050565b6141bb81614e01565b82525050565b60006141cc82614c75565b6141d68185614ca3565b93506141e183614c50565b8060005b838110156142125781516141f9888261419a565b975061420483614c96565b9250506001810190506141e5565b5085935050505092915050565b61422881614e13565b82525050565b600061423982614c80565b6142438185614cb4565b9350614253818560208601614e84565b61425c81615050565b840191505092915050565b600061427282614c8b565b61427c8185614cd0565b935061428c818560208601614e84565b61429581615050565b840191505092915050565b60006142ab82614c8b565b6142b58185614ce1565b93506142c5818560208601614e84565b80840191505092915050565b600081546142de81614eb7565b6142e88186614ce1565b94506001821660008114614303576001811461431457614347565b60ff19831686528186019350614347565b61431d85614c60565b60005b8381101561433f57815481890152600182019150602081019050614320565b838801955050505b50505092915050565b600061435d601283614cd0565b915061436882615061565b602082019050919050565b6000614380602b83614cd0565b915061438b8261508a565b604082019050919050565b60006143a3603283614cd0565b91506143ae826150d9565b604082019050919050565b60006143c6602683614cd0565b91506143d182615128565b604082019050919050565b60006143e9602583614cd0565b91506143f482615177565b604082019050919050565b600061440c601c83614cd0565b9150614417826151c6565b602082019050919050565b600061442f601c83614cd0565b915061443a826151ef565b602082019050919050565b6000614452602483614cd0565b915061445d82615218565b604082019050919050565b6000614475601983614cd0565b915061448082615267565b602082019050919050565b6000614498602c83614cd0565b91506144a382615290565b604082019050919050565b60006144bb602183614cd0565b91506144c6826152df565b604082019050919050565b60006144de603883614cd0565b91506144e98261532e565b604082019050919050565b6000614501602a83614cd0565b915061450c8261537d565b604082019050919050565b6000614524602983614cd0565b915061452f826153cc565b604082019050919050565b6000614547601683614cd0565b91506145528261541b565b602082019050919050565b600061456a602483614cd0565b915061457582615444565b604082019050919050565b600061458d602083614cd0565b915061459882615493565b602082019050919050565b60006145b0602c83614cd0565b91506145bb826154bc565b604082019050919050565b60006145d3602083614cd0565b91506145de8261550b565b602082019050919050565b60006145f6602f83614cd0565b915061460182615534565b604082019050919050565b6000614619601e83614cd0565b915061462482615583565b602082019050919050565b600061463c602183614cd0565b9150614647826155ac565b604082019050919050565b600061465f600083614cc5565b915061466a826155fb565b600082019050919050565b6000614682601283614cd0565b915061468d826155fe565b602082019050919050565b60006146a5603183614cd0565b91506146b082615627565b604082019050919050565b60006146c8602c83614cd0565b91506146d382615676565b604082019050919050565b60006146eb601783614cd0565b91506146f6826156c5565b602082019050919050565b600061470e601b83614cd0565b9150614719826156ee565b602082019050919050565b61472d81614e6b565b82525050565b61473c81614e6b565b82525050565b600061474e82866142a0565b915061475a82856142a0565b915061476682846142d1565b9150819050949350505050565b600061477e82614652565b9150819050919050565b600060208201905061479d60008301846141b2565b92915050565b60006080820190506147b860008301876141b2565b6147c560208301866141b2565b6147d26040830185614733565b81810360608301526147e4818461422e565b905095945050505050565b6000602082019050818103600083015261480981846141c1565b905092915050565b6000602082019050614826600083018461421f565b92915050565b600060208201905081810360008301526148468184614267565b905092915050565b6000602082019050818103600083015261486781614350565b9050919050565b6000602082019050818103600083015261488781614373565b9050919050565b600060208201905081810360008301526148a781614396565b9050919050565b600060208201905081810360008301526148c7816143b9565b9050919050565b600060208201905081810360008301526148e7816143dc565b9050919050565b60006020820190508181036000830152614907816143ff565b9050919050565b6000602082019050818103600083015261492781614422565b9050919050565b6000602082019050818103600083015261494781614445565b9050919050565b6000602082019050818103600083015261496781614468565b9050919050565b600060208201905081810360008301526149878161448b565b9050919050565b600060208201905081810360008301526149a7816144ae565b9050919050565b600060208201905081810360008301526149c7816144d1565b9050919050565b600060208201905081810360008301526149e7816144f4565b9050919050565b60006020820190508181036000830152614a0781614517565b9050919050565b60006020820190508181036000830152614a278161453a565b9050919050565b60006020820190508181036000830152614a478161455d565b9050919050565b60006020820190508181036000830152614a6781614580565b9050919050565b60006020820190508181036000830152614a87816145a3565b9050919050565b60006020820190508181036000830152614aa7816145c6565b9050919050565b60006020820190508181036000830152614ac7816145e9565b9050919050565b60006020820190508181036000830152614ae78161460c565b9050919050565b60006020820190508181036000830152614b078161462f565b9050919050565b60006020820190508181036000830152614b2781614675565b9050919050565b60006020820190508181036000830152614b4781614698565b9050919050565b60006020820190508181036000830152614b67816146bb565b9050919050565b60006020820190508181036000830152614b87816146de565b9050919050565b60006020820190508181036000830152614ba781614701565b9050919050565b6000602082019050614bc36000830184614733565b92915050565b6000614bd3614be4565b9050614bdf8282614ee9565b919050565b6000604051905090565b600067ffffffffffffffff821115614c0957614c08615021565b5b614c1282615050565b9050602081019050919050565b600067ffffffffffffffff821115614c3a57614c39615021565b5b614c4382615050565b9050602081019050919050565b6000819050602082019050919050565b60008190508160005260206000209050919050565b600081519050919050565b600081519050919050565b600081519050919050565b6000602082019050919050565b600082825260208201905092915050565b600082825260208201905092915050565b600081905092915050565b600082825260208201905092915050565b600081905092915050565b6000614cf782614e6b565b9150614d0283614e6b565b9250827fffffffffffffffffffffffffffffffffffffffffffffffffffffffffffffffff03821115614d3757614d36614f94565b5b828201905092915050565b6000614d4d82614e6b565b9150614d5883614e6b565b925082614d6857614d67614fc3565b5b828204905092915050565b6000614d7e82614e6b565b9150614d8983614e6b565b9250817fffffffffffffffffffffffffffffffffffffffffffffffffffffffffffffffff0483118215151615614dc257614dc1614f94565b5b828202905092915050565b6000614dd882614e6b565b9150614de383614e6b565b925082821015614df657614df5614f94565b5b828203905092915050565b6000614e0c82614e4b565b9050919050565b60008115159050919050565b60007fffffffff0000000000000000000000000000000000000000000000000000000082169050919050565b600073ffffffffffffffffffffffffffffffffffffffff82169050919050565b6000819050919050565b82818337600083830152505050565b60005b83811015614ea2578082015181840152602081019050614e87565b83811115614eb1576000848401525b50505050565b60006002820490506001821680614ecf57607f821691505b60208210811415614ee357614ee2614ff2565b5b50919050565b614ef282615050565b810181811067ffffffffffffffff82111715614f1157614f10615021565b5b80604052505050565b6000614f2582614e6b565b91507fffffffffffffffffffffffffffffffffffffffffffffffffffffffffffffffff821415614f5857614f57614f94565b5b600182019050919050565b6000614f6e82614e6b565b9150614f7983614e6b565b925082614f8957614f88614fc3565b5b828206905092915050565b7f4e487b7100000000000000000000000000000000000000000000000000000000600052601160045260246000fd5b7f4e487b7100000000000000000000000000000000000000000000000000000000600052601260045260246000fd5b7f4e487b7100000000000000000000000000000000000000000000000000000000600052602260045260246000fd5b7f4e487b7100000000000000000000000000000000000000000000000000000000600052604160045260246000fd5b6000601f19601f8301169050919050565b7f4e6f7420656e6f75676820737570706c79210000000000000000000000000000600082015250565b7f455243373231456e756d657261626c653a206f776e657220696e646578206f7560008201527f74206f6620626f756e6473000000000000000000000000000000000000000000602082015250565b7f4552433732313a207472616e7366657220746f206e6f6e20455243373231526560008201527f63656976657220696d706c656d656e7465720000000000000000000000000000602082015250565b7f4f776e61626c653a206e6577206f776e657220697320746865207a65726f206160008201527f6464726573730000000000000000000000000000000000000000000000000000602082015250565b7f4552433732313a207472616e736665722066726f6d20696e636f72726563742060008201527f6f776e6572000000000000000000000000000000000000000000000000000000602082015250565b7f4552433732313a20746f6b656e20616c7265616479206d696e74656400000000600082015250565b7f6d6178204e465420706572206164647265737320657863656564656400000000600082015250565b7f4552433732313a207472616e7366657220746f20746865207a65726f2061646460008201527f7265737300000000000000000000000000000000000000000000000000000000602082015250565b7f4552433732313a20617070726f766520746f2063616c6c657200000000000000600082015250565b7f4552433732313a206f70657261746f7220717565727920666f72206e6f6e657860008201527f697374656e7420746f6b656e0000000000000000000000000000000000000000602082015250565b7f50726f76696465207175616e74697469657320616e6420726563697069656e7460008201527f7300000000000000000000000000000000000000000000000000000000000000602082015250565b7f4552433732313a20617070726f76652063616c6c6572206973206e6f74206f7760008201527f6e6572206e6f7220617070726f76656420666f7220616c6c0000000000000000602082015250565b7f4552433732313a2062616c616e636520717565727920666f7220746865207a6560008201527f726f206164647265737300000000000000000000000000000000000000000000602082015250565b7f4552433732313a206f776e657220717565727920666f72206e6f6e657869737460008201527f656e7420746f6b656e0000000000000000000000000000000000000000000000602082015250565b7f6d6178204e4654206c696d697420657863656564656400000000000000000000600082015250565b7f6d6178206d696e7420616d6f756e74207065722073657373696f6e206578636560008201527f6564656400000000000000000000000000000000000000000000000000000000602082015250565b7f4552433732313a206d696e7420746f20746865207a65726f2061646472657373600082015250565b7f4552433732313a20617070726f76656420717565727920666f72206e6f6e657860008201527f697374656e7420746f6b656e0000000000000000000000000000000000000000602082015250565b7f4f776e61626c653a2063616c6c6572206973206e6f7420746865206f776e6572600082015250565b7f4552433732314d657461646174613a2055524920717565727920666f72206e6f60008201527f6e6578697374656e7420746f6b656e0000000000000000000000000000000000602082015250565b7f436f6e74726163742069732063757272656e74656c7920706175736564210000600082015250565b7f4552433732313a20617070726f76616c20746f2063757272656e74206f776e6560008201527f7200000000000000000000000000000000000000000000000000000000000000602082015250565b50565b7f696e73756666696369656e742066756e64730000000000000000000000000000600082015250565b7f4552433732313a207472616e736665722063616c6c6572206973206e6f74206f60008201527f776e6572206e6f7220617070726f766564000000000000000000000000000000602082015250565b7f455243373231456e756d657261626c653a20676c6f62616c20696e646578206f60008201527f7574206f6620626f756e64730000000000000000000000000000000000000000602082015250565b7f75736572206973206e6f742077686974656c6973746564000000000000000000600082015250565b7f6e65656420746f206d696e74206174206c656173742031204e46540000000000600082015250565b61572081614e01565b811461572b57600080fd5b50565b61573781614e13565b811461574257600080fd5b50565b61574e81614e1f565b811461575957600080fd5b50565b61576581614e6b565b811461577057600080fd5b5056fea2646970667358221220d74605ecd39e5be3b1bc69756699bcc4822e2b1b081a52158068a6087ac463fc64736f6c63430008040033",
  "linkReferences": {},
  "deployedLinkReferences": {}
}